{
  "contractName": "Farming",
  "abi": [
    {
      "constant": true,
      "inputs": [
        {
          "name": "",
          "type": "uint256"
        }
      ],
      "name": "jobs",
      "outputs": [
        {
          "name": "budget",
          "type": "uint256"
        }
      ],
      "payable": false,
      "stateMutability": "view",
      "type": "function"
    },
    {
      "inputs": [],
      "payable": false,
      "stateMutability": "nonpayable",
      "type": "constructor"
    },
    {
      "constant": false,
      "inputs": [
        {
          "name": "jobId",
          "type": "uint256"
        }
      ],
      "name": "submitJob",
      "outputs": [],
      "payable": true,
      "stateMutability": "payable",
      "type": "function"
    },
    {
      "constant": true,
      "inputs": [
        {
          "name": "jobId",
          "type": "uint256"
        }
      ],
      "name": "getJobBudget",
      "outputs": [
        {
          "name": "",
          "type": "uint256"
        }
      ],
      "payable": false,
      "stateMutability": "view",
      "type": "function"
    },
    {
      "constant": false,
      "inputs": [
        {
          "name": "jobId",
          "type": "uint256"
        },
        {
          "name": "farmerAddress",
          "type": "string"
        },
        {
          "name": "reward",
          "type": "uint256"
        }
      ],
      "name": "submitReward",
      "outputs": [],
      "payable": false,
      "stateMutability": "nonpayable",
      "type": "function"
    },
    {
      "constant": true,
      "inputs": [
        {
          "name": "jobId",
          "type": "uint256"
        },
        {
          "name": "farmerAddress",
          "type": "string"
        }
      ],
      "name": "getRewardBalance",
      "outputs": [
        {
          "name": "",
          "type": "uint256"
        }
      ],
      "payable": false,
      "stateMutability": "view",
      "type": "function"
    },
    {
      "constant": false,
      "inputs": [
        {
          "name": "jobId",
          "type": "uint256"
        },
        {
          "name": "farmerAddress",
          "type": "string"
        }
      ],
      "name": "claimReward",
      "outputs": [],
      "payable": true,
      "stateMutability": "payable",
      "type": "function"
    }
  ],
  "bytecode": "0x608060405234801561001057600080fd5b5061057e806100206000396000f300608060405260043610610077576000357c0100000000000000000000000000000000000000000000000000000000900463ffffffff16806291cc7c1461007c578063180aedf314610103578063362543a9146101445780639e7fd3d214610185578063e7aa0194146101eb578063f895899f1461020b575b600080fd5b34801561008857600080fd5b506100ed60048036038101908080359060200190929190803590602001908201803590602001908080601f0160208091040260200160405190810160405280939291908181526020018383808284378201915050505050509192919290505050610288565b6040518082815260200191505060405180910390f35b34801561010f57600080fd5b5061012e60048036038101908080359060200190929190505050610311565b6040518082815260200191505060405180910390f35b34801561015057600080fd5b5061016f6004803603810190808035906020019092919050505061032f565b6040518082815260200191505060405180910390f35b6101e960048036038101908080359060200190929190803590602001908201803590602001908080601f016020809104026020016040519081016040528093929190818152602001838380828437820191505050505050919291929050505061034e565b005b610209600480360381019080803590602001909291905050506104a7565b005b34801561021757600080fd5b5061028660048036038101908080359060200190929190803590602001908201803590602001908080601f0160208091040260200160405190810160405280939291908181526020018383808284378201915050505050509192919290803590602001909291905050506104c4565b005b6000806000848152602001908152602001600020600001826040518082805190602001908083835b6020831015156102d557805182526020820191506020810190506020830392506102b0565b6001836020036101000a038019825116818451168082178552505050505050905001915050908152602001604051809103902054905092915050565b60006020528060005260406000206000915090508060010154905081565b6000806000838152602001908152602001600020600101549050919050565b600080600080858152602001908152602001600020915081600001836040518082805190602001908083835b60208310151561039f578051825260208201915060208101905060208303925061037a565b6001836020036101000a0380198251168184511680821785525050505050509050019150509081526020016040518091039020549050600082600001846040518082805190602001908083835b60208310151561041157805182526020820191506020810190506020830392506103ec565b6001836020036101000a0380198251168184511680821785525050505050509050019150509081526020016040518091039020819055508082600101600082825403925050819055503373ffffffffffffffffffffffffffffffffffffffff166108fc829081150290604051600060405180830381858888f193505050501580156104a0573d6000803e3d6000fd5b5050505050565b346000808381526020019081526020016000206001018190555050565b600080600085815260200190815260200160002090508181600001846040518082805190602001908083835b60208310151561051557805182526020820191506020810190506020830392506104f0565b6001836020036101000a038019825116818451168082178552505050505050905001915050908152602001604051809103902081905550505050505600a165627a7a723058207d1a4db0f30c75f1e76198d46b30a6acee25b8549ccc45a55b4b0b085a7821f90029",
  "source": "pragma solidity ^0.4.24;\r\n\r\ncontract Farming {\r\n    mapping(uint => Job) public jobs;\r\n\r\n    struct Job {\r\n      mapping(string => uint) rewards;\r\n      uint budget;\r\n    }\r\n\r\n    constructor () public {\r\n    }\r\n\r\n    function submitJob(uint jobId) public payable{\r\n        jobs[jobId].budget = msg.value;\r\n    }\r\n\r\n    function getJobBudget(uint jobId) public view returns(uint) {\r\n        return jobs[jobId].budget;\r\n    }\r\n\r\n    function submitReward(uint jobId, string farmerAddress, uint reward) public {\r\n        Job storage job = jobs[jobId];\r\n        job.rewards[farmerAddress] = reward;\r\n    }\r\n\r\n    function getRewardBalance(uint jobId, string farmerAddress) public view returns(uint) {\r\n        return jobs[jobId].rewards[farmerAddress];\r\n    }\r\n\r\n    function claimReward(uint jobId, string farmerAddress) public payable{\r\n        Job storage job = jobs[jobId];\r\n        uint reward = job.rewards[farmerAddress];\r\n        job.rewards[farmerAddress] = 0;\r\n        job.budget -= reward;\r\n        msg.sender.transfer(reward);\r\n    }\r\n}\r\n",
  "sourcePath": "D:\\Development\\EnvironmentA\\farming-protocol\\examples\\multi-farmer-simulation-smart-contract\\farming_contract\\contracts\\Farming.sol",
  "compiler": {
    "name": "solc",
    "version": "0.4.24+commit.e67f0147.Emscripten.clang"
  },
  "schemaVersion": "2.0.0",
  "updatedAt": "2018-08-08T17:09:08.865Z"
}