{
  "contractName": "Farming",
  "abi": [
    {
      "constant": true,
      "inputs": [
        {
          "name": "",
          "type": "bytes32"
        }
      ],
      "name": "jobs",
      "outputs": [
        {
          "name": "budget",
          "type": "uint256"
        }
      ],
      "payable": false,
      "stateMutability": "view",
      "type": "function"
    },
    {
      "inputs": [],
      "payable": false,
      "stateMutability": "nonpayable",
      "type": "constructor"
    },
    {
      "constant": false,
      "inputs": [
        {
          "name": "jobId",
          "type": "bytes32"
        }
      ],
      "name": "submitJob",
      "outputs": [],
      "payable": true,
      "stateMutability": "payable",
      "type": "function"
    },
    {
      "constant": true,
      "inputs": [
        {
          "name": "jobId",
          "type": "bytes32"
        }
      ],
      "name": "getJobBudget",
      "outputs": [
        {
          "name": "",
          "type": "uint256"
        }
      ],
      "payable": false,
      "stateMutability": "view",
      "type": "function"
    },
    {
      "constant": false,
      "inputs": [
        {
          "name": "jobId",
          "type": "bytes32"
        },
        {
          "name": "farmerId",
          "type": "bytes32"
        },
        {
          "name": "reward",
          "type": "bytes32"
        }
      ],
      "name": "submitReward",
      "outputs": [],
      "payable": false,
      "stateMutability": "nonpayable",
      "type": "function"
    },
    {
      "constant": true,
      "inputs": [
        {
          "name": "jobId",
          "type": "bytes32"
        },
        {
          "name": "farmerId",
          "type": "bytes32"
        }
      ],
      "name": "getRewardBalance",
      "outputs": [
        {
          "name": "",
          "type": "uint256"
        }
      ],
      "payable": false,
      "stateMutability": "view",
      "type": "function"
    },
    {
      "constant": false,
      "inputs": [
        {
          "name": "jobId",
          "type": "bytes32"
        },
        {
          "name": "farmerId",
          "type": "bytes32"
        }
      ],
      "name": "claimReward",
      "outputs": [],
      "payable": true,
      "stateMutability": "payable",
      "type": "function"
    }
  ],
  "bytecode": "0x608060405234801561001057600080fd5b506103e6806100206000396000f300608060405260043610610078576000357c0100000000000000000000000000000000000000000000000000000000900463ffffffff1680633543610f1461007d57806338ed7cfc146100d05780634cba21ef146101155780638b13e85b1461015a57806395f637b41461017e578063e17347d9146101cb575b600080fd5b34801561008957600080fd5b506100ba600480360381019080803560001916906020019092919080356000191690602001909291905050506101fd565b6040518082815260200191505060405180910390f35b3480156100dc57600080fd5b506100ff600480360381019080803560001916906020019092919050505061023e565b6040518082815260200191505060405180910390f35b34801561012157600080fd5b50610144600480360381019080803560001916906020019092919050505061025c565b6040518082815260200191505060405180910390f35b61017c6004803603810190808035600019169060200190929190505050610283565b005b34801561018a57600080fd5b506101c96004803603810190808035600019169060200190929190803560001916906020019092919080356000191690602001909291905050506102a8565b005b6101fb600480360381019080803560001916906020019092919080356000191690602001909291905050506102f2565b005b600080600084600019166000191681526020019081526020016000206000016000836000191660001916815260200190815260200160002054905092915050565b60006020528060005260406000206000915090508060010154905081565b60008060008360001916600019168152602001908152602001600020600101549050919050565b3460008083600019166000191681526020019081526020016000206001018190555050565b600080600085600019166000191681526020019081526020016000209050816001900481600001600085600019166000191681526020019081526020016000208190555050505050565b60008060008085600019166000191681526020019081526020016000209150816000016000846000191660001916815260200190815260200160002054905060008260000160008560001916600019168152602001908152602001600020819055508082600101600082825403925050819055503373ffffffffffffffffffffffffffffffffffffffff166108fc66715ecaebc0f4009081150290604051600060405180830381858888f193505050501580156103b3573d6000803e3d6000fd5b50505050505600a165627a7a72305820845ed3cefd5400d5142e99a1f7203a1acdfcdecaf6216219d53a6532944e1f3a0029",
  "source": "pragma solidity ^0.4.24;\n\ncontract Farming {\n    mapping(bytes32 => Job) public jobs;\n\n    struct Job {\n        mapping(bytes32 => uint) rewards;\n        uint budget;\n    }\n\n    constructor () public {\n    }\n\n    function submitJob(bytes32 jobId) public payable{\n        jobs[jobId].budget = msg.value;\n    }\n\n    function getJobBudget(bytes32 jobId) public view returns(uint) {\n        return jobs[jobId].budget;\n    }\n\n    function submitReward(bytes32 jobId, bytes32 farmerId, bytes32 reward) public {\n        Job storage job = jobs[jobId];\n        job.rewards[farmerId] = uint(reward);\n    }\n\n    function getRewardBalance(bytes32 jobId, bytes32 farmerId) public view returns(uint) {\n        return jobs[jobId].rewards[farmerId];\n    }\n\n    function claimReward(bytes32 jobId, bytes32 farmerId) public payable{\n        Job storage job = jobs[jobId];\n        uint reward = job.rewards[farmerId];\n        job.rewards[farmerId] = 0;\n        job.budget -= reward;\n        msg.sender.transfer(31910898000000000);\n    }\n}\n",
  "sourcePath": "/root/contract/contracts/Farming.sol",
  "compiler": {
    "name": "solc",
    "version": "0.4.24+commit.e67f0147.Emscripten.clang"
  },
  "schemaVersion": "2.0.1",
  "updatedAt": "2018-10-22T17:17:54.570Z"
}