{
  "contractName": "Price",
  "abi": [
    {
      "anonymous": false,
      "inputs": [
        {
          "indexed": false,
          "name": "_identity",
          "type": "string"
        }
      ],
      "name": "PriceSet",
      "type": "event"
    },
    {
      "constant": false,
      "inputs": [
        {
          "name": "identity",
          "type": "string"
        },
        {
          "name": "price",
          "type": "uint16"
        },
        {
          "name": "storageAddr",
          "type": "address"
        }
      ],
      "name": "setPrice",
      "outputs": [],
      "payable": false,
      "stateMutability": "nonpayable",
      "type": "function"
    },
    {
      "constant": true,
      "inputs": [
        {
          "name": "identity",
          "type": "string"
        }
      ],
      "name": "getPrice",
      "outputs": [
        {
          "name": "price",
          "type": "uint16"
        }
      ],
      "payable": false,
      "stateMutability": "view",
      "type": "function"
    }
  ],
  "bytecode": "0x608060405234801561001057600080fd5b50610564806100206000396000f30060806040526004361061004c576000357c0100000000000000000000000000000000000000000000000000000000900463ffffffff168063524f388914610051578063915b1235146100d6575b600080fd5b34801561005d57600080fd5b506100b8600480360381019080803590602001908201803590602001908080601f016020809104026020016040519081016040528093929190818152602001838380828437820191505050505050919291929050505061016d565b604051808261ffff1661ffff16815260200191505060405180910390f35b3480156100e257600080fd5b5061016b600480360381019080803590602001908201803590602001908080601f0160208091040260200160405190810160405280939291908181526020018383808284378201915050505050509192919290803561ffff169060200190929190803573ffffffffffffffffffffffffffffffffffffffff1690602001909291905050506101ef565b005b600080826040518082805190602001908083835b6020831015156101a65780518252602082019150602081019050602083039250610181565b6001836020036101000a038019825116818451168082178552505050505050905001915050908152602001604051809103902060009054906101000a900461ffff169050919050565b338073ffffffffffffffffffffffffffffffffffffffff163373ffffffffffffffffffffffffffffffffffffffff16141515610293576040517f08c379a00000000000000000000000000000000000000000000000000000000081526004018080602001828103825260168152602001807f53656e646572206e6f7420617574686f72697a65642e0000000000000000000081525060200191505060405180910390fd5b81600160006101000a81548173ffffffffffffffffffffffffffffffffffffffff021916908373ffffffffffffffffffffffffffffffffffffffff160217905550600160009054906101000a900473ffffffffffffffffffffffffffffffffffffffff1673ffffffffffffffffffffffffffffffffffffffff1663261a323e856040518263ffffffff167c01000000000000000000000000000000000000000000000000000000000281526004018080602001828103825283818151815260200191508051906020019080838360005b8381101561037e578082015181840152602081019050610363565b50505050905090810190601f1680156103ab5780820380516001836020036101000a031916815260200191505b5092505050602060405180830381600087803b1580156103ca57600080fd5b505af11580156103de573d6000803e3d6000fd5b505050506040513d60208110156103f457600080fd5b8101908080519060200190929190505050151561041057600080fd5b826000856040518082805190602001908083835b6020831015156104495780518252602082019150602081019050602083039250610424565b6001836020036101000a038019825116818451168082178552505050505050905001915050908152602001604051809103902060006101000a81548161ffff021916908361ffff1602179055507f97c8b8497114798d057358affad1673bee63928a48d8f783a60acfef1b960036846040518080602001828103825283818151815260200191508051906020019080838360005b838110156104f85780820151818401526020810190506104dd565b50505050905090810190601f1680156105255780820380516001836020036101000a031916815260200191505b509250505060405180910390a1505050505600a165627a7a723058200e6ac0dadb0ccde24db79c00d7d5782d36de68756aee4520d436d2cd6391228e0029",
  "source": "pragma solidity ^0.4.24;\r\n\r\ncontract Storage {\r\n\r\n  function exists(string identity) public view returns (bool doesExist) { }\r\n\r\n}\r\n\r\ncontract Price {\r\n\r\n  event PriceSet(string _identity);\r\n\r\n  mapping (string => uint16) price_mappings;\r\n  Storage s;\r\n\r\n  modifier onlyBy(address _account) {\r\n    require(msg.sender == _account, \"Sender not authorized.\");\r\n    _;\r\n  }\r\n\r\n  function setPrice(string identity, uint16 price, address storageAddr) public onlyBy(msg.sender) {\r\n    s = Storage(storageAddr);\r\n    require(s.exists(identity));\r\n    price_mappings[identity] = price;  \r\n    emit PriceSet(identity);\r\n  }\r\n\r\n  function getPrice(string identity) public view returns (uint16 price) {\r\n    return price_mappings[identity];\r\n  }\r\n\r\n}\r\n",
  "sourcePath": "D:\\Development\\EnvironmentA\\ara-filesystem\\contracts\\Price.sol",
  "compiler": {
    "name": "solc",
    "version": "0.4.24+commit.e67f0147.Emscripten.clang"
  },
  "schemaVersion": "2.0.0",
  "updatedAt": "2018-07-23T16:30:41.121Z"
}