{
  "contractName": "Storage",
  "abi": [
    {
      "constant": true,
      "inputs": [],
      "name": "owner",
      "outputs": [
        {
          "name": "",
          "type": "address"
        }
      ],
      "payable": false,
      "stateMutability": "view",
      "type": "function"
    },
    {
      "inputs": [],
      "payable": false,
      "stateMutability": "nonpayable",
      "type": "constructor"
    },
    {
      "anonymous": false,
      "inputs": [
        {
          "indexed": false,
          "name": "_identity",
          "type": "string"
        }
      ],
      "name": "Commit",
      "type": "event"
    },
    {
      "anonymous": false,
      "inputs": [
        {
          "indexed": false,
          "name": "_identity",
          "type": "string"
        }
      ],
      "name": "MarkedInvalid",
      "type": "event"
    },
    {
      "constant": false,
      "inputs": [
        {
          "name": "identity",
          "type": "string"
        },
        {
          "name": "file",
          "type": "uint8"
        },
        {
          "name": "offset",
          "type": "uint256"
        },
        {
          "name": "buffer",
          "type": "bytes"
        },
        {
          "name": "last_write",
          "type": "bool"
        }
      ],
      "name": "write",
      "outputs": [],
      "payable": false,
      "stateMutability": "nonpayable",
      "type": "function"
    },
    {
      "constant": true,
      "inputs": [
        {
          "name": "identity",
          "type": "string"
        }
      ],
      "name": "exists",
      "outputs": [
        {
          "name": "doesExist",
          "type": "bool"
        }
      ],
      "payable": false,
      "stateMutability": "view",
      "type": "function"
    },
    {
      "constant": true,
      "inputs": [
        {
          "name": "identity",
          "type": "string"
        },
        {
          "name": "file",
          "type": "uint8"
        },
        {
          "name": "offset",
          "type": "uint256"
        }
      ],
      "name": "read",
      "outputs": [
        {
          "name": "buffer",
          "type": "bytes"
        }
      ],
      "payable": false,
      "stateMutability": "view",
      "type": "function"
    },
    {
      "constant": false,
      "inputs": [
        {
          "name": "identity",
          "type": "string"
        }
      ],
      "name": "del",
      "outputs": [],
      "payable": false,
      "stateMutability": "nonpayable",
      "type": "function"
    }
  ],
  "bytecode": "0x608060405234801561001057600080fd5b50336000806101000a81548173ffffffffffffffffffffffffffffffffffffffff021916908373ffffffffffffffffffffffffffffffffffffffff160217905550610dce806100606000396000f30060806040526004361061006d576000357c0100000000000000000000000000000000000000000000000000000000900463ffffffff1680630bca089a14610072578063261a323e146100db5780636371cf7e1461015c5780638da5cb5b1461022e578063a3c144cf14610285575b600080fd5b34801561007e57600080fd5b506100d9600480360381019080803590602001908201803590602001908080601f016020809104026020016040519081016040528093929190818152602001838380828437820191505050505050919291929050505061037e565b005b3480156100e757600080fd5b50610142600480360381019080803590602001908201803590602001908080601f01602080910402602001604051908101604052809392919081815260200183838082843782019150505050505091929192905050506105ad565b604051808215151515815260200191505060405180910390f35b34801561016857600080fd5b5061022c600480360381019080803590602001908201803590602001908080601f0160208091040260200160405190810160405280939291908181526020018383808284378201915050505050509192919290803560ff16906020019092919080359060200190929190803590602001908201803590602001908080601f01602080910402602001604051908101604052809392919081815260200183838082843782019150505050505091929192908035151590602001909291905050506106d7565b005b34801561023a57600080fd5b50610243610aed565b604051808273ffffffffffffffffffffffffffffffffffffffff1673ffffffffffffffffffffffffffffffffffffffff16815260200191505060405180910390f35b34801561029157600080fd5b50610303600480360381019080803590602001908201803590602001908080601f0160208091040260200160405190810160405280939291908181526020018383808284378201915050505050509192919290803560ff16906020019092919080359060200190929190505050610b12565b6040518080602001828103825283818151815260200191508051906020019080838360005b83811015610343578082015181840152602081019050610328565b50505050905090810190601f1680156103705780820380516001836020036101000a031916815260200191505b509250505060405180910390f35b6000809054906101000a900473ffffffffffffffffffffffffffffffffffffffff1673ffffffffffffffffffffffffffffffffffffffff163373ffffffffffffffffffffffffffffffffffffffff161415156103d957600080fd5b600180826040518082805190602001908083835b60208310151561041257805182526020820191506020810190506020830392506103ed565b6001836020036101000a038019825116818451168082178552505050505050905001915050908152602001604051809103902060008060ff16815260200190815260200160002060030160006101000a81548160ff021916908315150217905550600180826040518082805190602001908083835b6020831015156104ac5780518252602082019150602081019050602083039250610487565b6001836020036101000a03801982511681845116808217855250505050505090500191505090815260200160405180910390206000600160ff16815260200190815260200160002060030160006101000a81548160ff0219169083151502179055507f7b28a0d47e7fad320e9242256dbb8e10dcd7ce838e9288589608143b11a65fdb816040518080602001828103825283818151815260200191508051906020019080838360005b83811015610570578082015181840152602081019050610555565b50505050905090810190601f16801561059d5780820380516001836020036101000a031916815260200191505b509250505060405180910390a150565b6000806001836040518082805190602001908083835b6020831015156105e857805182526020820191506020810190506020830392506105c3565b6001836020036101000a038019825116818451168082178552505050505050905001915050908152602001604051809103902060008060ff168152602001908152602001600020600201805490501180156106d057506001826040518082805190602001908083835b6020831015156106765780518252602082019150602081019050602083039250610651565b6001836020036101000a038019825116818451168082178552505050505050905001915050908152602001604051809103902060008060ff16815260200190815260200160002060030160009054906101000a900460ff16155b9050919050565b6000809054906101000a900473ffffffffffffffffffffffffffffffffffffffff1673ffffffffffffffffffffffffffffffffffffffff163373ffffffffffffffffffffffffffffffffffffffff1614151561073257600080fd5b6001856040518082805190602001908083835b60208310151561076a5780518252602082019150602081019050602083039250610745565b6001836020036101000a038019825116818451168082178552505050505050905001915050908152602001604051809103902060008560ff1660ff16815260200190815260200160002060030160009054906101000a900460ff161515156107d157600080fd5b816001866040518082805190602001908083835b60208310151561080a57805182526020820191506020810190506020830392506107e5565b6001836020036101000a038019825116818451168082178552505050505050905001915050908152602001604051809103902060008660ff1660ff1681526020019081526020016000206000016000858152602001908152602001600020908051906020019061087b929190610cfd565b506001856040518082805190602001908083835b6020831015156108b4578051825260208201915060208101905060208303925061088f565b6001836020036101000a038019825116818451168082178552505050505050905001915050908152602001604051809103902060008560ff1660ff1681526020019081526020016000206002018390806001815401808255809150509060018203906000526020600020016000909192909190915055506001856040518082805190602001908083835b602083101515610963578051825260208201915060208101905060208303925061093e565b6001836020036101000a038019825116818451168082178552505050505050905001915050908152602001604051809103902060008560ff1660ff16815260200190815260200160002060010154831115610a4357826001866040518082805190602001908083835b6020831015156109f157805182526020820191506020810190506020830392506109cc565b6001836020036101000a038019825116818451168082178552505050505050905001915050908152602001604051809103902060008660ff1660ff168152602001908152602001600020600101819055505b8015610ae6577f81542de3da6f1f216fee8163fc0618913251c9f50b0a7385cad8a684d82cde5c856040518080602001828103825283818151815260200191508051906020019080838360005b83811015610aab578082015181840152602081019050610a90565b50505050905090810190601f168015610ad85780820380516001836020036101000a031916815260200191505b509250505060405180910390a15b5050505050565b6000809054906101000a900473ffffffffffffffffffffffffffffffffffffffff1681565b60606001846040518082805190602001908083835b602083101515610b4c5780518252602082019150602081019050602083039250610b27565b6001836020036101000a038019825116818451168082178552505050505050905001915050908152602001604051809103902060008460ff1660ff16815260200190815260200160002060030160009054906101000a900460ff1615610bc45760206040519081016040528060008152509050610cf6565b6001846040518082805190602001908083835b602083101515610bfc5780518252602082019150602081019050602083039250610bd7565b6001836020036101000a038019825116818451168082178552505050505050905001915050908152602001604051809103902060008460ff1660ff16815260200190815260200160002060000160008381526020019081526020016000208054600181600116156101000203166002900480601f016020809104026020016040519081016040528092919081815260200182805460018160011615610100020316600290048015610cee5780601f10610cc357610100808354040283529160200191610cee565b820191906000526020600020905b815481529060010190602001808311610cd157829003601f168201915b505050505090505b9392505050565b828054600181600116156101000203166002900490600052602060002090601f016020900481019282601f10610d3e57805160ff1916838001178555610d6c565b82800160010185558215610d6c579182015b82811115610d6b578251825591602001919060010190610d50565b5b509050610d799190610d7d565b5090565b610d9f91905b80821115610d9b576000816000905550600101610d83565b5090565b905600a165627a7a72305820ed42c91be43b3e3c673efef9482fe9d7dbbde27d1be0627d9798c1c09ed81a4b0029",
  "source": "pragma solidity ^0.4.24;\n\ncontract Storage {\n\n  address public owner;\n\n  // 0 - metadata/tree file\n  // 1 - metadata/signatures file\n  // DID => file index => offset => buffer\n  mapping (string => mapping(uint8 => Buffers)) buffer_mappings;\n\n  struct Buffers {\n    mapping (uint256 => bytes) buffers;\n    uint256 largest_key;\n    uint256[] keys;\n    bool invalid;\n  }\n\n  event Commit(string _identity);\n  event MarkedInvalid(string _identity);\n\n  constructor() public {\n    owner = msg.sender;\n  }\n \n  modifier restricted() {\n    require (msg.sender == owner);\n    _;\n  }\n\n  function write(string identity, uint8 file, uint256 offset, bytes buffer, bool last_write) public restricted {\n    // make sure AFS hasn't been removed\n    require(!buffer_mappings[identity][file].invalid);\n\n    buffer_mappings[identity][file].buffers[offset] = buffer;\n    buffer_mappings[identity][file].keys.push(offset);\n    if (offset > buffer_mappings[identity][file].largest_key) {\n      buffer_mappings[identity][file].largest_key = offset;\n    }\n\n    if (last_write) {\n      emit Commit(identity);\n    }\n  }\n\n  function exists(string identity) public view returns (bool doesExist) {\n    return buffer_mappings[identity][0].keys.length > 0 \n      && !buffer_mappings[identity][0].invalid;\n  }\n\n  function read(string identity, uint8 file, uint256 offset) public view returns (bytes buffer) {\n    if (buffer_mappings[identity][file].invalid) {\n      return \"\"; // empty bytes\n    }\n    return buffer_mappings[identity][file].buffers[offset];\n  }\n\n  function del(string identity) public restricted {\n    buffer_mappings[identity][0].invalid = true;\n    buffer_mappings[identity][1].invalid = true;\n    emit MarkedInvalid(identity);\n  }\n}\n",
  "sourcePath": "/Users/huydao/GitHub/farming-sdk/node_modules/ara-filesystem/contracts/Storage.sol",
  "compiler": {
    "name": "solc",
    "version": "0.4.24+commit.e67f0147.Emscripten.clang"
  },
  "schemaVersion": "2.0.0",
  "updatedAt": "2018-07-23T21:58:55.715Z"
}