{
  "contractName": "Farming",
  "abi": [
    {
      "constant": true,
      "inputs": [
        {
          "name": "",
          "type": "uint256"
        }
      ],
      "name": "jobs",
      "outputs": [
        {
          "name": "budget",
          "type": "uint256"
        }
      ],
      "payable": false,
      "stateMutability": "view",
      "type": "function"
    },
    {
      "inputs": [],
      "payable": false,
      "stateMutability": "nonpayable",
      "type": "constructor"
    },
    {
      "constant": false,
      "inputs": [
        {
          "name": "jobId",
          "type": "uint256"
        }
      ],
      "name": "submitJob",
      "outputs": [],
      "payable": true,
      "stateMutability": "payable",
      "type": "function"
    },
    {
      "constant": false,
      "inputs": [
        {
          "name": "jobId",
          "type": "uint256"
        },
        {
          "name": "farmerAddress",
          "type": "string"
        },
        {
          "name": "reward",
          "type": "uint256"
        }
      ],
      "name": "submitReward",
      "outputs": [],
      "payable": false,
      "stateMutability": "nonpayable",
      "type": "function"
    },
    {
      "constant": false,
      "inputs": [
        {
          "name": "jobId",
          "type": "uint256"
        },
        {
          "name": "farmerAddress",
          "type": "string"
        }
      ],
      "name": "claimReward",
      "outputs": [],
      "payable": true,
      "stateMutability": "payable",
      "type": "function"
    }
  ],
  "bytecode": "0x608060405234801561001057600080fd5b506103f9806100206000396000f300608060405260043610610062576000357c0100000000000000000000000000000000000000000000000000000000900463ffffffff168063180aedf3146100675780639e7fd3d2146100a8578063e7aa01941461010e578063f895899f1461012e575b600080fd5b34801561007357600080fd5b50610092600480360381019080803590602001909291905050506101ab565b6040518082815260200191505060405180910390f35b61010c60048036038101908080359060200190929190803590602001908201803590602001908080601f01602080910402602001604051908101604052809392919081815260200183838082843782019150505050505091929192905050506101c9565b005b61012c60048036038101908080359060200190929190505050610322565b005b34801561013a57600080fd5b506101a960048036038101908080359060200190929190803590602001908201803590602001908080601f01602080910402602001604051908101604052809392919081815260200183838082843782019150505050505091929192908035906020019092919050505061033f565b005b60006020528060005260406000206000915090508060010154905081565b600080600080858152602001908152602001600020915081600001836040518082805190602001908083835b60208310151561021a57805182526020820191506020810190506020830392506101f5565b6001836020036101000a0380198251168184511680821785525050505050509050019150509081526020016040518091039020549050600082600001846040518082805190602001908083835b60208310151561028c5780518252602082019150602081019050602083039250610267565b6001836020036101000a0380198251168184511680821785525050505050509050019150509081526020016040518091039020819055508082600101600082825403925050819055503373ffffffffffffffffffffffffffffffffffffffff166108fc829081150290604051600060405180830381858888f1935050505015801561031b573d6000803e3d6000fd5b5050505050565b346000808381526020019081526020016000206001018190555050565b600080600085815260200190815260200160002090508181600001846040518082805190602001908083835b602083101515610390578051825260208201915060208101905060208303925061036b565b6001836020036101000a038019825116818451168082178552505050505050905001915050908152602001604051809103902081905550505050505600a165627a7a723058200980b26b5c87018f4c6bdd6191bca53041aedb4e3c6bc54dbaaf4182fd25715f0029",
  "source": "pragma solidity ^0.4.24;\n\ncontract Farming {\n    mapping(uint => Job) public jobs;\n\n    struct Job {\n      mapping(string => uint) rewards;\n      uint budget;\n    }\n\n    constructor () public {\n    }\n\n    function submitJob(uint jobId) public payable{\n        jobs[jobId].budget = msg.value;\n    }\n\n    function submitReward(uint jobId, string farmerAddress, uint reward) public {\n        Job storage job = jobs[jobId];\n        job.rewards[farmerAddress] = reward;\n    }\n\n    function claimReward(uint jobId, string farmerAddress) public payable{\n        Job storage job = jobs[jobId];\n        uint reward = job.rewards[farmerAddress];\n        job.rewards[farmerAddress] = 0;\n        job.budget -= reward;\n        msg.sender.transfer(reward);\n    }\n}\n",
  "sourcePath": "/Users/huydao/GitHub/farming-sdk/examples/remote-peers-contract/farming_contract/contracts/Farming.sol",
  "compiler": {
    "name": "solc",
    "version": "0.4.24+commit.e67f0147.Emscripten.clang"
  },
  "schemaVersion": "2.0.0",
  "updatedAt": "2018-07-20T19:45:27.887Z"
}